:100000000C945E000C9486000C9486000C94860080
:100010000C9486000C9486000C9486000C94E902E3
:100020000C9486000C9486000C9486000C94860038
:100030000C9486000C9486000C9486000C94860028
:100040000C949F020C9486000C946B030C94450353
:100050000C9486000C9486000C9486000C94860008
:100060000C9486000C948600020000000800020137
:100070000000030407000000000000000000000072
:1000800000250028002B0000000000240027002A83
:100090000004040404040404040202020202020331
:1000A000030303030301020408102040800102043B
:1000B00008102001020408102000670511241FBE4B
:1000C000CFEFD8E0DEBFCDBF11E0A0E0B1E0E6E1C8
:1000D000F1E102C005900D92A235B107D9F722E0F7
:1000E000A2E5B1E001C01D92AB38B207E1F710E024
:1000F000CEE5D0E004C02197FE010E949405CD35E5
:10010000D107C9F70E949D030C9489080C94000044
:1001100090E0FC01EB55FF4F2491FC01EF56FF4F9F
:100120008491882399F090E0880F991FFC01E9578A
:10013000FF4FA591B491FC01E358FF4F8591949135
:100140008FB7F894EC91E22BEC938FBF089590E079
:10015000FC01E759FF4F2491FC01EB55FF4F34910F
:10016000FC01EF56FF4FE491EE2309F43CC022233B
:1001700039F1233091F038F42130A9F0223001F523
:1001800084B58F7D12C0273091F02830A1F0243043
:10019000B9F4809180008F7D03C0809180008F77BB
:1001A000809380000DC084B58F7784BD09C0809195
:1001B000B0008F7703C08091B0008F7D8093B00036
:1001C000F0E0EE0FFF1FE358FF4FA591B4919FB7EA
:1001D000F894611104C08C913095382302C0EC91E1
:1001E0003E2B3C939FBF08953FB7F8948091EA015E
:1001F0009091EB01A091EC01B091ED0126B5A89B87
:1002000005C02F3F19F00196A11DB11D3FBFBA2FA8
:10021000A92F982F8827820F911DA11DB11DBC0108
:10022000CD0142E0660F771F881F991F4A95D1F7CD
:1002300008958F929F92AF92BF92CF92DF92EF92EA
:10024000FF920E94F4004B015C018AE0C82ED12C81
:10025000E12CF12C0E94F400DC01CB0188199909F2
:10026000AA09BB09883E9340A105B10598F321E096
:10027000C21AD108E108F10888EE880E83E0981EC2
:10028000A11CB11CC114D104E104F10419F7FF90C1
:10029000EF90DF90CF90BF90AF909F908F90089598
:1002A00090910001891324C0E8E6F0E0E4919FEF0B
:1002B00090930001E130B9F098F0E230C9F49091E8
:1002C00070009D7F9093700091E09093B0009091AA
:1002D000B100987F94609093B1001092B30008C071
:1002E00010926E0005C090916F009D7F90936F00FB
:1002F00060E00C94A700CF92DF92EF92FF920F93F1
:100300001F93CF93DF936C017A018B01C0E0D0E0A3
:10031000CE15DF0581F0D8016D918D01D601ED91EB
:10032000FC910190F081E02DC6010995892B11F017
:100330002196EECF7E01C701DF91CF911F910F91E2
:10034000FF90EF90DF90CF900895089580E090E0C7
:100350000895FC01538D448D252F30E0842F90E0CB
:10036000821B930B541710F0CF96089501970895B0
:10037000FC01918D828D981761F0828DDF01A80FAD
:10038000B11D5D968C91928D9F5F9F73928F90E0CF
:1003900008958FEF9FEF0895FC01918D828D98173E
:1003A00031F0828DE80FF11D858D90E008958FEF7B
:1003B0009FEF0895FC01918D228D892F90E0805C44
:1003C0009F4F821B91098F73992708958EEE91E0BC
:1003D0000E94DA0121E0892B09F420E0822F0895A0
:1003E000FC01848DDF01A80FB11DA35ABF4F2C91D2
:1003F000848D90E001968F739927848FA689B789A1
:100400002C93A089B1898C91837080648C93938D97
:10041000848D981306C00288F389E02D80818F7D3A
:1004200080830895EF92FF920F931F93CF93DF93F2
:10043000EC0181E0888F9B8D8C8D981305C0E88935
:10044000F989808185FD26C0F62E0B8D10E00F5FA7
:100450001F4F0F731127E02E8C8DE8120CC00FB6C2
:1004600007FCFACFE889F989808185FFF5CFCE01B5
:100470000E94F001F1CF8B8DFE01E80FF11DE35AD0
:10048000FF4FF0829FB7F8940B8FEA89FB89808138
:1004900080620AC09FB7F894EE89FF896083E8897B
:1004A000F98980818370806480839FBF81E090E0C0
:1004B000DF91CF911F910F91FF90EF900895CF930F
:1004C000DF93EC01888D8823C9F0EA89FB8980815C
:1004D00085FD05C0A889B9898C9186FD0FC00FB62E
:1004E00007FCF5CF808185FFF2CFA889B9898C916F
:1004F00085FFEDCFCE010E94F001E7CFDF91CF91D4
:10050000089580E090E0892B29F00E94E601811196
:100510000C9400000895009769F0FC010190002000
:10052000E9F73197AF01481B590BBC018EEE91E002
:100530000C947B0180E090E008950E949A051F9240
:100540000F920FB60F9211242F933F938F939F9387
:10055000AF93BF938091E6019091E701A091E801EC
:10056000B091E9013091E50123E0230F2D3720F40C
:100570000196A11DB11D05C026E8230F0296A11DFD
:10058000B11D2093E5018093E6019093E701A093CC
:10059000E801B093E9018091EA019091EB01A0910B
:1005A000EC01B091ED010196A11DB11D8093EA010E
:1005B0009093EB01A093EC01B093ED01BF91AF914B
:1005C0009F918F913F912F910F900FBE0F901F9091
:1005D00018951F920F920FB60F9211242F933F93ED
:1005E0004F935F936F937F938F939F93AF93BF933B
:1005F000EF93FF938091570190915801A091590179
:10060000B0915A01892B8A2B8B2B51F19091520179
:10061000E0915301F091540180818927808380917A
:10062000570190915801A0915901B0915A011816A3
:1006300019061A061B06C4F48091570190915801BF
:10064000A0915901B0915A010197A109B109809374
:10065000570190935801A0935901B0935A0104C0D7
:10066000809100010E945001FF91EF91BF91AF91E5
:100670009F918F917F916F915F914F913F912F91BA
:100680000F900FBE0F901F9018951F920F920FB6EC
:100690000F9211242F933F934F935F936F937F9308
:1006A0008F939F93AF93BF93EF93FF938EEE91E061
:1006B0000E94F001FF91EF91BF91AF919F918F91B7
:1006C0007F916F915F914F913F912F910F900FBE4E
:1006D0000F901F9018951F920F920FB60F92112432
:1006E0002F938F939F93EF93FF93E091FE01F091EF
:1006F000FF018081E0910402F091050282FD12C0A9
:100700009081809107028F5F8F732091080282177A
:1007100051F0E0910702F0E0E251FE4F958F809397
:10072000070201C08081FF91EF919F918F912F91DE
:100730000F900FBE0F901F901895789484B582602B
:1007400084BD84B5816084BD85B5826085BD85B575
:10075000816085BD80916E00816080936E001092F3
:10076000810080918100826080938100809181006E
:1007700081608093810080918000816080938000FF
:100780008091B10084608093B1008091B00081605D
:100790008093B00080917A00846080937A00809189
:1007A0007A00826080937A0080917A0081608093E1
:1007B0007A0080917A00806880937A001092C1005C
:1007C00088E00E9488008DE00E948800E091FE0190
:1007D000F091FF0182E08083E091FA01F091FB014A
:1007E0001082E091FC01F091FD018FEC808310926A
:1007F0000602E0910202F091030286E08083E0911C
:100800000002F0910102808180618083E09100020A
:10081000F0910102808188608083E0910002F09174
:100820000102808180688083E0910002F0910102E2
:1008300080818F7D808300E433E1232E31E0332EED
:1008400043E6442E41E0542E58EC852E912CA12CE9
:10085000B12C61EE662E64E0762E78E6C72E70E04D
:10086000D72EEDEAEE2EE0E0FE2E00937C00809184
:100870007A00806480937A0080917A0086FDFCCFB4
:10088000C091780080917900D0E0D82B8091E3016D
:100890009091E4018C179D071CF08C1B9D0B04C0EC
:1008A0009E01281B390BC9010B970CF4F2C0DF9392
:1008B000CF931F929EE09F933F922F925F924F9211
:1008C0000E949F0583E691E00E948B02EDB7FEB780
:1008D00038960FB6F894FEBF0FBEEDBFC931F1E0F8
:1008E000DF070CF4CBC080910001883021F08F3FEE
:1008F00009F0ACC003C0F601149171C088E0809388
:100900000001F60184918F3F09F4A0C0813009F401
:1009100044C040F1823009F061C01092B0001092E2
:10092000B1008091B00082608093B0008091B100EE
:1009300081608093B100E9E9F0E08491E82FF0E074
:10094000EE0FFF1FE358FF4F859194919093540150
:1009500080935301F70184918093520188E00E94B3
:1009600088009AC014BC15BC84B5826084BD85B56E
:10097000816085BDE9E9F0E08491E82FF0E0EE0FB9
:10098000FF1FE358FF4F85919491F7018491809365
:10099000560188E00E94880086C010928000109264
:1009A0008100809181008860809381008091810026
:1009B000816080938100E9E9F0E08491E82FF0E024
:1009C000EE0FFF1FE358FF4F85919491F70184913B
:1009D0008093550188E00E9488000EC0182F17FDF3
:1009E00035C088E00E948800112309F45CC01230F1
:1009F00009F452C01130C1F480918100887F836076
:100A000080938100709289006092880080925B01DF
:100A100090925C01A0925D01B0925E0180916F00A6
:100A2000826080936F0012C0123081F481EE809357
:100A3000B3008092570190925801A0925901B09250
:100A40005A018091700082608093700061E08DE0B7
:100A50000E94A7000E94190188E00E94500160E0F6
:100A60008DE00E94A7000E94190186E291E00E9499
:100A70008B028EE491E00E948B0207C088E00E9406
:100A8000500160E08DE00E94A700D093E401C09384
:100A9000E3010E948102E9CE8091B10087608093DA
:100AA000B1008DE4C4CF85B5887F856085BDFDE448
:100AB000F7BD80925F0190926001A0926101B092B7
:100AC000620180916E00826080936E00BFCFEEEE77
:100AD000F1E01382128288EE93E0A0E0B0E084831C
:100AE0009583A683B78385E091E09183808385EC2D
:100AF00090E09587848784EC90E09787868780ECE8
:100B000090E0918B808B81EC90E0938B828B82ECD8
:100B100090E0958B848B86EC90E0978B868B118E82
:100B2000128E138E148E0895EE0FFF1F0590F49110
:100B3000E02D099481E090E0F8940C948908AEE0EF
:100B4000B0E0E5EAF5E00C9460080D891E8986E0C6
:100B50008C831A8309838FEF9FE79E838D83AE0179
:100B6000475E5F4F6F89788DCE0101960E94C10567
:100B7000EF81F885E00FF11F10822E96E4E00C94CF
:100B80007C08ABE0B0E0E7ECF5E00C9452086C01B7
:100B90007B018A01FC0117821682838181FFCCC10F
:100BA000CE0101963C01F6019381F70193FD8591F9
:100BB00093FF81917F01882309F4BAC1853239F40A
:100BC00093FD859193FF81917F01853229F4B601D0
:100BD00090E00E94B807E7CF912C212C312CFFE147
:100BE000F315D8F08B3279F038F4803279F0833213
:100BF000A1F4232D20611DC08D3261F0803369F492
:100C0000232D216016C0832D8260382EE32DE460F1
:100C10003E2E2AC0F32DF8601DC037FC2DC020EDFC
:100C2000280F2A3040F08E32B9F436FC81C1232DD2
:100C30002064322E19C036FE06C08AE0989E200D30
:100C40001124922E11C0EAE02E9E200D1124222E96
:100C5000F32DF0623F2E08C08C3621F4832D80687E
:100C6000382E02C0883641F4F70193FD859193FF39
:100C700081917F018111B3CF982F9F7D955493303F
:100C800028F40C5F1F4F9FE399830DC0833631F02A
:100C9000833771F0833509F059C021C0F801808194
:100CA00089830E5F1F4F88248394912C530113C0B6
:100CB0002801F2E04F0E511CF801A080B18036FEF1
:100CC00003C0692D70E002C06FEF7FEFC5010E9485
:100CD000AD074C018201F32DFF773F2E16C028018E
:100CE00022E0420E511CF801A080B18036FE03C004
:100CF000692D70E002C06FEF7FEFC5010E94A2076F
:100D00004C01F32DF0683F2E820133FC1BC0822D75
:100D100090E088169906B0F4B60180E290E00E9457
:100D2000B8072A94F4CFF50137FC859137FE8191FD
:100D30005F01B60190E00E94B80721102A9421E0DB
:100D4000821A91088114910471F7E8C0843611F079
:100D5000893641F5F80137FE07C0608171818281D3
:100D600093810C5F1F4F08C060817181072E000CBA
:100D7000880B990B0E5F1F4FF32DFF763F2E97FFC9
:100D800009C090958095709561957F4F8F4F9F4FCB
:100D9000F0683F2E2AE030E0A3010E94F407882E7D
:100DA000861845C0853731F4232D2F7EB22E2AE0D8
:100DB00030E025C0932D997FB92E8F36C1F018F4FD
:100DC000883579F0B5C0803719F0883721F0B0C088
:100DD000E92FE061BE2EB4FE0DC0FB2DF460BF2EE6
:100DE00009C034FE0AC0292F2660B22E06C028E0B2
:100DF00030E005C020E130E002C020E132E0F8013F
:100E0000B7FE07C060817181828193810C5F1F4FA3
:100E100006C06081718180E090E00E5F1F4FA301EA
:100E20000E94F407882E8618FB2DFF773F2E36FE92
:100E30000DC0232D2E7FA22E891458F434FE0BC032
:100E400032FC09C0832D8E7EA82E05C0B82CA32CA1
:100E500003C0B82C01C0B92CA4FE0FC0FE01E80DE0
:100E6000F11D8081803321F49A2D997EA92E09C02D
:100E7000A2FE06C0B394B39404C08A2D867809F00C
:100E8000B394A3FC11C0A0FE06C0B21488F4280CD1
:100E9000922C9B180EC0B21460F4B60180E290E070
:100EA0000E94B807B394F7CFB21418F42B1802C0FD
:100EB000982C212CA4FE10C0B60180E390E00E9483
:100EC000B807A2FE17C0A1FC03C088E790E002C0EB
:100ED00088E590E0B6010CC08A2D867859F0A1FE15
:100EE00002C08BE201C080E2A7FC8DE2B60190E077
:100EF0000E94B807891438F4B60180E390E00E949C
:100F0000B8079A94F7CF8A94F301E80DF11D808118
:100F1000B60190E00E94B8078110F5CF222009F4B5
:100F200042CEB60180E290E00E94B8072A94F6CF44
:100F3000F6018681978102C08FEF9FEF2B96E2E149
:100F40000C946E08FC010590615070400110D8F7B8
:100F5000809590958E0F9F1F0895FC016150704001
:100F600001900110D8F7809590958E0F9F1F0895DE
:100F70000F931F93CF93DF93FB01238121FD03C0C8
:100F80008FEF9FEF2CC022FF16C04681578124812E
:100F900035814217530744F4A081B1819D012F5F31
:100FA0003F4F318320838C93268137812F5F3F4FC2
:100FB0003783268314C08B01EC01FB010084F1858B
:100FC000E02D0995892BE1F6D80116968D919C911B
:100FD0001797019617969C938E931697CE01DF91E3
:100FE000CF911F910F910895FA01AA27283051F14E
:100FF000203181F1E8946F936E7F6E5F7F4F8F4F4A
:101000009F4FAF4FB1E03ED0B4E03CD0670F781FA8
:10101000891F9A1FA11D680F791F8A1F911DA11D8D
:101020006A0F711D811D911DA11D20D009F46894C6
:101030003F912AE0269F11243019305D3193DEF66E
:10104000CF010895462F4770405D4193B3E00FD024
:10105000C9F7F6CF462F4F70405D4A3318F0495D0F
:1010600031FD4052419302D0A9F7EACFB4E0A695F2
:101070009795879577956795BA95C9F70097610514
:10108000710508959B01AC010A2E0694579547956A
:1010900037952795BA95C9F7620F731F841F951F5F
:1010A000A01D08952F923F924F925F926F927F9270
:1010B0008F929F92AF92BF92CF92DF92EF92FF9268
:1010C0000F931F93CF93DF93CDB7DEB7CA1BDB0B14
:1010D0000FB6F894DEBF0FBECDBF09942A883988B9
:1010E00048885F846E847D848C849B84AA84B984C0
:1010F000C884DF80EE80FD800C811B81AA81B981CC
:10110000CE0FD11D0FB6F894DEBF0FBECDBFED01DF
:061110000895F894FFCFE2
:10111600FF0000000012027B01A9015F02DA01B89C
:1011260001CC014144432564206C6576656C2069D9
:10113600732025640A002D2D2D2D2D2D2D2D2D2DC1
:101146002D20414C41524D2041435449564154456E
:1011560044202D2D2D2D2D2D2D2D2D2D2D000D0A1F
:02116600000087
:107E0000112484B714BE81FFF0D085E080938100F7
:107E100082E08093C00088E18093C10086E0809377
:107E2000C20080E18093C4008EE0C9D0259A86E02C
:107E300020E33CEF91E0309385002093840096BBD3
:107E4000B09BFECF1D9AA8958150A9F7CC24DD24C4
:107E500088248394B5E0AB2EA1E19A2EF3E0BF2EE7
:107E6000A2D0813461F49FD0082FAFD0023811F036
:107E7000013811F484E001C083E08DD089C08234E0
:107E800011F484E103C0853419F485E0A6D080C0E4
:107E9000853579F488D0E82EFF2485D0082F10E0AE
:107EA000102F00270E291F29000F111F8ED06801E7
:107EB0006FC0863521F484E090D080E0DECF843638
:107EC00009F040C070D06FD0082F6DD080E0C81688
:107ED00080E7D80618F4F601B7BEE895C0E0D1E017
:107EE00062D089930C17E1F7F0E0CF16F0E7DF06D8
:107EF00018F0F601B7BEE89568D007B600FCFDCFD4
:107F0000A601A0E0B1E02C9130E011968C91119780
:107F100090E0982F8827822B932B1296FA010C0160
:107F200087BEE89511244E5F5F4FF1E0A038BF0790
:107F300051F7F601A7BEE89507B600FCFDCF97BE46
:107F4000E89526C08437B1F42ED02DD0F82E2BD052
:107F50003CD0F601EF2C8F010F5F1F4F84911BD097
:107F6000EA94F801C1F70894C11CD11CFA94CF0C13
:107F7000D11C0EC0853739F428D08EE10CD085E9AC
:107F80000AD08FE07ACF813511F488E018D01DD067
:107F900080E101D065CF982F8091C00085FFFCCF94
:107FA0009093C60008958091C00087FFFCCF809118
:107FB000C00084FD01C0A8958091C6000895E0E648
:107FC000F0E098E1908380830895EDDF803219F02E
:107FD00088E0F5DFFFCF84E1DECF1F93182FE3DFCA
:107FE0001150E9F7F2DF1F91089580E0E8DFEE27F6
:047FF000FF270994CA
:027FFE00040479
:0400000300007E007B
:00000001FF
